{
  "contractName": "KVStorage",
  "abi": [
    {
      "constant": true,
      "inputs": [],
      "name": "namespace",
      "outputs": [
        {
          "name": "",
          "type": "string"
        }
      ],
      "payable": false,
      "stateMutability": "view",
      "type": "function"
    },
    {
      "constant": true,
      "inputs": [],
      "name": "keyCount",
      "outputs": [
        {
          "name": "",
          "type": "uint256"
        }
      ],
      "payable": false,
      "stateMutability": "view",
      "type": "function"
    },
    {
      "inputs": [
        {
          "name": "_namespace",
          "type": "string"
        }
      ],
      "payable": false,
      "stateMutability": "nonpayable",
      "type": "constructor"
    },
    {
      "constant": true,
      "inputs": [
        {
          "name": "key",
          "type": "bytes32"
        }
      ],
      "name": "get",
      "outputs": [
        {
          "name": "",
          "type": "bytes32"
        }
      ],
      "payable": false,
      "stateMutability": "view",
      "type": "function"
    },
    {
      "constant": false,
      "inputs": [
        {
          "name": "key",
          "type": "bytes32"
        },
        {
          "name": "value",
          "type": "bytes32"
        }
      ],
      "name": "set",
      "outputs": [],
      "payable": false,
      "stateMutability": "nonpayable",
      "type": "function"
    }
  ],
  "bytecode": "0x608060405234801561001057600080fd5b506040516104c73803806104c783398101806040528101908080518201929190505050600081511115156100ac576040517f08c379a00000000000000000000000000000000000000000000000000000000081526004018080602001828103825260138152602001807f5f6e616d6573706163652072657175697265640000000000000000000000000081525060200191505060405180910390fd5b80600090805190602001906100c29291906100c9565b505061016e565b828054600181600116156101000203166002900490600052602060002090601f016020900481019282601f1061010a57805160ff1916838001178555610138565b82800160010185558215610138579182015b8281111561013757825182559160200191906001019061011c565b5b5090506101459190610149565b5090565b61016b91905b8082111561016757600081600090555060010161014f565b5090565b90565b61034a8061017d6000396000f300608060405260043610610062576000357c0100000000000000000000000000000000000000000000000000000000900463ffffffff1680637c015a89146100675780638eaa6ac0146100f7578063f71f7a2514610144578063fac750e014610183575b600080fd5b34801561007357600080fd5b5061007c6101ae565b6040518080602001828103825283818151815260200191508051906020019080838360005b838110156100bc5780820151818401526020810190506100a1565b50505050905090810190601f1680156100e95780820380516001836020036101000a031916815260200191505b509250505060405180910390f35b34801561010357600080fd5b50610126600480360381019080803560001916906020019092919050505061024c565b60405180826000191660001916815260200191505060405180910390f35b34801561015057600080fd5b5061018160048036038101908080356000191690602001909291908035600019169060200190929190505050610271565b005b34801561018f57600080fd5b50610198610318565b6040518082815260200191505060405180910390f35b60008054600181600116156101000203166002900480601f0160208091040260200160405190810160405280929190818152602001828054600181600116156101000203166002900480156102445780601f1061021957610100808354040283529160200191610244565b820191906000526020600020905b81548152906001019060200180831161022757829003601f168201915b505050505081565b6000600260008360001916600019168152602001908152602001600020549050919050565b60006002600084600019166000191681526020019081526020016000205490506000600102826000191614156102cb57600060010281600019161415156102c657600160008154809291906001900391905055505b6102ef565b6000600102816000191614156102ee576001600081548092919060010191905055505b5b816002600085600019166000191681526020019081526020016000208160001916905550505050565b600154815600a165627a7a7230582032f6573670a286496b8dcedca47a3feba31316cc1de08dec9330ac13d068f82c0029",
  "source": "pragma solidity ^0.4.24;\n\nlibrary SafeMath {\n\n    /**\n    * @dev Multiplies two numbers, throws on overflow.\n    */\n    function mul(uint256 a, uint256 b) internal pure returns (uint256) {\n        if (a == 0) {\n            return 0;\n        }\n        uint256 c = a * b;\n        assert(c / a == b);\n        return c;\n    }\n\n    /**\n    * @dev Integer division of two numbers, truncating the quotient.\n    */\n    function div(uint256 a, uint256 b) internal pure returns (uint256) {\n        assert(b > 0); // Solidity automatically throws when dividing by 0\n        uint256 c = a / b;\n        assert(a == b * c + a % b); // There is no case in which this doesn't hold\n        return a / b;\n    }\n\n    /**\n    * @dev Subtracts two numbers, throws on overflow (i.e. if subtrahend is greater than minuend).\n    */\n    function sub(uint256 a, uint256 b) internal pure returns (uint256) {\n        assert(b <= a);\n        return a - b;\n    }\n\n    /**\n    * @dev Adds two numbers, throws on overflow.\n    */\n    function add(uint256 a, uint256 b) internal pure returns (uint256) {\n        uint256 c = a + b;\n        assert(c >= a);\n        return c;\n    }\n}\n\n\n/**\n * Contract that implements key-value based data table. \n */\ncontract KVStorage {\n\n    string public namespace;\n    uint256 public keyCount;\n    \n    // Key-Value Storage\n    mapping(bytes32 => bytes32) _keyToValue;\n\n    constructor(string _namespace) public {\n        require(bytes(_namespace).length > 0, \"_namespace required\");\n        namespace = _namespace;\n    }\n\n    function get(bytes32 key) public view returns(bytes32) {\n        return _keyToValue[key];\n    }\n\n    function set(bytes32 key, bytes32 value) public {\n        bytes32 oldValue = _keyToValue[key];\n        if(value == 0) {\n            if(oldValue != 0) keyCount--;\n        } else {\n            if(oldValue == 0) keyCount++;\n        }\n\n        _keyToValue[key] = value;\n    }\n\n}\n\n",
  "sourcePath": "/Data/projects/MPL/vechain-dapp-sample/contracts/KVStorage.sol",
  "compiler": {
    "name": "solc",
    "version": "0.4.25+commit.59dbf8f1.Emscripten.clang"
  },
  "schemaVersion": "2.0.2",
  "updatedAt": "2019-04-11T03:11:03.274Z"
}